{
  "_format": "hh-sol-artifact-1",
  "contractName": "SanteToken",
  "sourceName": "contracts/SanteToken.sol",
  "abi": [
    {
      "inputs": [],
      "stateMutability": "nonpayable",
      "type": "constructor"
    },
    {
      "anonymous": false,
      "inputs": [
        {
          "indexed": true,
          "internalType": "address",
          "name": "owner",
          "type": "address"
        },
        {
          "indexed": true,
          "internalType": "address",
          "name": "spender",
          "type": "address"
        },
        {
          "indexed": false,
          "internalType": "uint256",
          "name": "value",
          "type": "uint256"
        }
      ],
      "name": "Approval",
      "type": "event"
    },
    {
      "anonymous": false,
      "inputs": [
        {
          "indexed": true,
          "internalType": "address",
          "name": "previousOwner",
          "type": "address"
        },
        {
          "indexed": true,
          "internalType": "address",
          "name": "newOwner",
          "type": "address"
        }
      ],
      "name": "OwnershipTransferred",
      "type": "event"
    },
    {
      "anonymous": false,
      "inputs": [
        {
          "indexed": true,
          "internalType": "address",
          "name": "from",
          "type": "address"
        },
        {
          "indexed": true,
          "internalType": "address",
          "name": "to",
          "type": "address"
        },
        {
          "indexed": false,
          "internalType": "uint256",
          "name": "value",
          "type": "uint256"
        }
      ],
      "name": "Transfer",
      "type": "event"
    },
    {
      "inputs": [
        {
          "internalType": "address",
          "name": "owner",
          "type": "address"
        },
        {
          "internalType": "address",
          "name": "spender",
          "type": "address"
        }
      ],
      "name": "allowance",
      "outputs": [
        {
          "internalType": "uint256",
          "name": "",
          "type": "uint256"
        }
      ],
      "stateMutability": "view",
      "type": "function"
    },
    {
      "inputs": [
        {
          "internalType": "address",
          "name": "spender",
          "type": "address"
        },
        {
          "internalType": "uint256",
          "name": "amount",
          "type": "uint256"
        }
      ],
      "name": "approve",
      "outputs": [
        {
          "internalType": "bool",
          "name": "",
          "type": "bool"
        }
      ],
      "stateMutability": "nonpayable",
      "type": "function"
    },
    {
      "inputs": [
        {
          "internalType": "address",
          "name": "account",
          "type": "address"
        }
      ],
      "name": "balanceOf",
      "outputs": [
        {
          "internalType": "uint256",
          "name": "",
          "type": "uint256"
        }
      ],
      "stateMutability": "view",
      "type": "function"
    },
    {
      "inputs": [
        {
          "internalType": "uint256",
          "name": "amount",
          "type": "uint256"
        }
      ],
      "name": "burn",
      "outputs": [],
      "stateMutability": "nonpayable",
      "type": "function"
    },
    {
      "inputs": [
        {
          "internalType": "address",
          "name": "account",
          "type": "address"
        },
        {
          "internalType": "uint256",
          "name": "amount",
          "type": "uint256"
        }
      ],
      "name": "burnFrom",
      "outputs": [],
      "stateMutability": "nonpayable",
      "type": "function"
    },
    {
      "inputs": [],
      "name": "currentCount",
      "outputs": [
        {
          "internalType": "uint256",
          "name": "",
          "type": "uint256"
        }
      ],
      "stateMutability": "view",
      "type": "function"
    },
    {
      "inputs": [],
      "name": "decimals",
      "outputs": [
        {
          "internalType": "uint8",
          "name": "",
          "type": "uint8"
        }
      ],
      "stateMutability": "view",
      "type": "function"
    },
    {
      "inputs": [
        {
          "internalType": "address",
          "name": "spender",
          "type": "address"
        },
        {
          "internalType": "uint256",
          "name": "subtractedValue",
          "type": "uint256"
        }
      ],
      "name": "decreaseAllowance",
      "outputs": [
        {
          "internalType": "bool",
          "name": "",
          "type": "bool"
        }
      ],
      "stateMutability": "nonpayable",
      "type": "function"
    },
    {
      "inputs": [
        {
          "internalType": "address",
          "name": "spender",
          "type": "address"
        },
        {
          "internalType": "uint256",
          "name": "addedValue",
          "type": "uint256"
        }
      ],
      "name": "increaseAllowance",
      "outputs": [
        {
          "internalType": "bool",
          "name": "",
          "type": "bool"
        }
      ],
      "stateMutability": "nonpayable",
      "type": "function"
    },
    {
      "inputs": [],
      "name": "maxSupply",
      "outputs": [
        {
          "internalType": "uint256",
          "name": "",
          "type": "uint256"
        }
      ],
      "stateMutability": "view",
      "type": "function"
    },
    {
      "inputs": [
        {
          "internalType": "address",
          "name": "to",
          "type": "address"
        },
        {
          "internalType": "uint256",
          "name": "amount",
          "type": "uint256"
        }
      ],
      "name": "mint",
      "outputs": [],
      "stateMutability": "payable",
      "type": "function"
    },
    {
      "inputs": [],
      "name": "mintingFee",
      "outputs": [
        {
          "internalType": "uint256",
          "name": "",
          "type": "uint256"
        }
      ],
      "stateMutability": "view",
      "type": "function"
    },
    {
      "inputs": [],
      "name": "name",
      "outputs": [
        {
          "internalType": "string",
          "name": "",
          "type": "string"
        }
      ],
      "stateMutability": "view",
      "type": "function"
    },
    {
      "inputs": [],
      "name": "owner",
      "outputs": [
        {
          "internalType": "address",
          "name": "",
          "type": "address"
        }
      ],
      "stateMutability": "view",
      "type": "function"
    },
    {
      "inputs": [],
      "name": "renounceOwnership",
      "outputs": [],
      "stateMutability": "nonpayable",
      "type": "function"
    },
    {
      "inputs": [],
      "name": "returnCurrentSupply",
      "outputs": [
        {
          "internalType": "uint256",
          "name": "",
          "type": "uint256"
        }
      ],
      "stateMutability": "view",
      "type": "function"
    },
    {
      "inputs": [
        {
          "internalType": "uint256",
          "name": "newFee",
          "type": "uint256"
        }
      ],
      "name": "setMintFee",
      "outputs": [],
      "stateMutability": "nonpayable",
      "type": "function"
    },
    {
      "inputs": [],
      "name": "symbol",
      "outputs": [
        {
          "internalType": "string",
          "name": "",
          "type": "string"
        }
      ],
      "stateMutability": "view",
      "type": "function"
    },
    {
      "inputs": [],
      "name": "totalSupply",
      "outputs": [
        {
          "internalType": "uint256",
          "name": "",
          "type": "uint256"
        }
      ],
      "stateMutability": "view",
      "type": "function"
    },
    {
      "inputs": [
        {
          "internalType": "address",
          "name": "to",
          "type": "address"
        },
        {
          "internalType": "uint256",
          "name": "amount",
          "type": "uint256"
        }
      ],
      "name": "transfer",
      "outputs": [
        {
          "internalType": "bool",
          "name": "",
          "type": "bool"
        }
      ],
      "stateMutability": "nonpayable",
      "type": "function"
    },
    {
      "inputs": [
        {
          "internalType": "address",
          "name": "from",
          "type": "address"
        },
        {
          "internalType": "address",
          "name": "to",
          "type": "address"
        },
        {
          "internalType": "uint256",
          "name": "amount",
          "type": "uint256"
        }
      ],
      "name": "transferFrom",
      "outputs": [
        {
          "internalType": "bool",
          "name": "",
          "type": "bool"
        }
      ],
      "stateMutability": "nonpayable",
      "type": "function"
    },
    {
      "inputs": [
        {
          "internalType": "address",
          "name": "newOwner",
          "type": "address"
        }
      ],
      "name": "transferOwnership",
      "outputs": [],
      "stateMutability": "nonpayable",
      "type": "function"
    }
  ],
  "bytecode": "0x60806040526a084595161401484a00000060065567016345785d8a00006008553480156200002c57600080fd5b506040518060400160405280600b81526020017f53616e746520546f6b656e0000000000000000000000000000000000000000008152506040518060400160405280600381526020017f53544b00000000000000000000000000000000000000000000000000000000008152508160039081620000aa91906200046e565b508060049081620000bc91906200046e565b505050620000df620000d36200012660201b60201c565b6200012e60201b60201c565b33600960006101000a81548173ffffffffffffffffffffffffffffffffffffffff021916908373ffffffffffffffffffffffffffffffffffffffff16021790555062000555565b600033905090565b6000600560009054906101000a900473ffffffffffffffffffffffffffffffffffffffff16905081600560006101000a81548173ffffffffffffffffffffffffffffffffffffffff021916908373ffffffffffffffffffffffffffffffffffffffff1602179055508173ffffffffffffffffffffffffffffffffffffffff168173ffffffffffffffffffffffffffffffffffffffff167f8be0079c531659141344cd1fd0a4f28419497f9722a3daafe3b4186f6b6457e060405160405180910390a35050565b600081519050919050565b7f4e487b7100000000000000000000000000000000000000000000000000000000600052604160045260246000fd5b7f4e487b7100000000000000000000000000000000000000000000000000000000600052602260045260246000fd5b600060028204905060018216806200027657607f821691505b6020821081036200028c576200028b6200022e565b5b50919050565b60008190508160005260206000209050919050565b60006020601f8301049050919050565b600082821b905092915050565b600060088302620002f67fffffffffffffffffffffffffffffffffffffffffffffffffffffffffffffffff82620002b7565b620003028683620002b7565b95508019841693508086168417925050509392505050565b6000819050919050565b6000819050919050565b60006200034f6200034962000343846200031a565b62000324565b6200031a565b9050919050565b6000819050919050565b6200036b836200032e565b620003836200037a8262000356565b848454620002c4565b825550505050565b600090565b6200039a6200038b565b620003a781848462000360565b505050565b5b81811015620003cf57620003c360008262000390565b600181019050620003ad565b5050565b601f8211156200041e57620003e88162000292565b620003f384620002a7565b8101602085101562000403578190505b6200041b6200041285620002a7565b830182620003ac565b50505b505050565b600082821c905092915050565b6000620004436000198460080262000423565b1980831691505092915050565b60006200045e838362000430565b9150826002028217905092915050565b6200047982620001f4565b67ffffffffffffffff811115620004955762000494620001ff565b5b620004a182546200025d565b620004ae828285620003d3565b600060209050601f831160018114620004e65760008415620004d1578287015190505b620004dd858262000450565b8655506200054d565b601f198416620004f68662000292565b60005b828110156200052057848901518255600182019150602085019450602081019050620004f9565b868310156200054057848901516200053c601f89168262000430565b8355505b6001600288020188555050505b505050505050565b611fd380620005656000396000f3fe6080604052600436106101355760003560e01c806379cc6790116100ab578063c732d2011161006f578063c732d2011461042f578063d5abeb011461045a578063dc9dfe8814610485578063dd62ed3e146104b0578063eddd0d9c146104ed578063f2fde38b1461051657610135565b806379cc6790146103365780638da5cb5b1461035f57806395d89b411461038a578063a457c2d7146103b5578063a9059cbb146103f257610135565b806339509351116100fd578063395093511461023557806340c10f191461027257806342966c681461028e5780635a64ad95146102b757806370a08231146102e2578063715018a61461031f57610135565b806306fdde031461013a578063095ea7b31461016557806318160ddd146101a257806323b872dd146101cd578063313ce5671461020a575b600080fd5b34801561014657600080fd5b5061014f61053f565b60405161015c91906114bf565b60405180910390f35b34801561017157600080fd5b5061018c6004803603810190610187919061157a565b6105d1565b60405161019991906115d5565b60405180910390f35b3480156101ae57600080fd5b506101b76105f4565b6040516101c491906115ff565b60405180910390f35b3480156101d957600080fd5b506101f460048036038101906101ef919061161a565b6105fe565b60405161020191906115d5565b60405180910390f35b34801561021657600080fd5b5061021f61062d565b60405161022c9190611689565b60405180910390f35b34801561024157600080fd5b5061025c6004803603810190610257919061157a565b610636565b60405161026991906115d5565b60405180910390f35b61028c6004803603810190610287919061157a565b61066d565b005b34801561029a57600080fd5b506102b560048036038101906102b091906116a4565b610799565b005b3480156102c357600080fd5b506102cc6107c6565b6040516102d991906115ff565b60405180910390f35b3480156102ee57600080fd5b50610309600480360381019061030491906116d1565b6107cc565b60405161031691906115ff565b60405180910390f35b34801561032b57600080fd5b50610334610814565b005b34801561034257600080fd5b5061035d6004803603810190610358919061157a565b610828565b005b34801561036b57600080fd5b50610374610848565b604051610381919061170d565b60405180910390f35b34801561039657600080fd5b5061039f610872565b6040516103ac91906114bf565b60405180910390f35b3480156103c157600080fd5b506103dc60048036038101906103d7919061157a565b610904565b6040516103e991906115d5565b60405180910390f35b3480156103fe57600080fd5b506104196004803603810190610414919061157a565b61097b565b60405161042691906115d5565b60405180910390f35b34801561043b57600080fd5b5061044461099e565b60405161045191906115ff565b60405180910390f35b34801561046657600080fd5b5061046f6109a4565b60405161047c91906115ff565b60405180910390f35b34801561049157600080fd5b5061049a6109aa565b6040516104a791906115ff565b60405180910390f35b3480156104bc57600080fd5b506104d760048036038101906104d29190611728565b6109b4565b6040516104e491906115ff565b60405180910390f35b3480156104f957600080fd5b50610514600480360381019061050f91906116a4565b610a3b565b005b34801561052257600080fd5b5061053d600480360381019061053891906116d1565b610a4d565b005b60606003805461054e90611797565b80601f016020809104026020016040519081016040528092919081815260200182805461057a90611797565b80156105c75780601f1061059c576101008083540402835291602001916105c7565b820191906000526020600020905b8154815290600101906020018083116105aa57829003601f168201915b5050505050905090565b6000806105dc610ad0565b90506105e9818585610ad8565b600191505092915050565b6000600254905090565b600080610609610ad0565b9050610616858285610ca1565b610621858585610d2d565b60019150509392505050565b60006012905090565b600080610641610ad0565b905061066281858561065385896109b4565b61065d91906117f7565b610ad8565b600191505092915050565b6008543410156106b2576040517f08c379a00000000000000000000000000000000000000000000000000000000081526004016106a990611877565b60405180910390fd5b6000600754826106c291906117f7565b90506006548110610708576040517f08c379a00000000000000000000000000000000000000000000000000000000081526004016106ff906118e3565b60405180910390fd5b6107128383610fac565b600960009054906101000a900473ffffffffffffffffffffffffffffffffffffffff1673ffffffffffffffffffffffffffffffffffffffff166108fc349081150290604051600060405180830381858888f1935050505015801561077a573d6000803e3d6000fd5b50816007600082825461078d91906117f7565b92505081905550505050565b6107aa6107a4610ad0565b8261110b565b80600760008282546107bc9190611903565b9250508190555050565b60085481565b60008060008373ffffffffffffffffffffffffffffffffffffffff1673ffffffffffffffffffffffffffffffffffffffff168152602001908152602001600020549050919050565b61081c6112e1565b610826600061135f565b565b61083a82610834610ad0565b83610ca1565b610844828261110b565b5050565b6000600560009054906101000a900473ffffffffffffffffffffffffffffffffffffffff16905090565b60606004805461088190611797565b80601f01602080910402602001604051908101604052809291908181526020018280546108ad90611797565b80156108fa5780601f106108cf576101008083540402835291602001916108fa565b820191906000526020600020905b8154815290600101906020018083116108dd57829003601f168201915b5050505050905090565b60008061090f610ad0565b9050600061091d82866109b4565b905083811015610962576040517f08c379a0000000000000000000000000000000000000000000000000000000008152600401610959906119a9565b60405180910390fd5b61096f8286868403610ad8565b60019250505092915050565b600080610986610ad0565b9050610993818585610d2d565b600191505092915050565b60075481565b60065481565b6000600754905090565b6000600160008473ffffffffffffffffffffffffffffffffffffffff1673ffffffffffffffffffffffffffffffffffffffff16815260200190815260200160002060008373ffffffffffffffffffffffffffffffffffffffff1673ffffffffffffffffffffffffffffffffffffffff16815260200190815260200160002054905092915050565b610a436112e1565b8060088190555050565b610a556112e1565b600073ffffffffffffffffffffffffffffffffffffffff168173ffffffffffffffffffffffffffffffffffffffff1603610ac4576040517f08c379a0000000000000000000000000000000000000000000000000000000008152600401610abb90611a3b565b60405180910390fd5b610acd8161135f565b50565b600033905090565b600073ffffffffffffffffffffffffffffffffffffffff168373ffffffffffffffffffffffffffffffffffffffff1603610b47576040517f08c379a0000000000000000000000000000000000000000000000000000000008152600401610b3e90611acd565b60405180910390fd5b600073ffffffffffffffffffffffffffffffffffffffff168273ffffffffffffffffffffffffffffffffffffffff1603610bb6576040517f08c379a0000000000000000000000000000000000000000000000000000000008152600401610bad90611b5f565b60405180910390fd5b80600160008573ffffffffffffffffffffffffffffffffffffffff1673ffffffffffffffffffffffffffffffffffffffff16815260200190815260200160002060008473ffffffffffffffffffffffffffffffffffffffff1673ffffffffffffffffffffffffffffffffffffffff168152602001908152602001600020819055508173ffffffffffffffffffffffffffffffffffffffff168373ffffffffffffffffffffffffffffffffffffffff167f8c5be1e5ebec7d5bd14f71427d1e84f3dd0314c0f7b2291e5b200ac8c7c3b92583604051610c9491906115ff565b60405180910390a3505050565b6000610cad84846109b4565b90507fffffffffffffffffffffffffffffffffffffffffffffffffffffffffffffffff8114610d275781811015610d19576040517f08c379a0000000000000000000000000000000000000000000000000000000008152600401610d1090611bcb565b60405180910390fd5b610d268484848403610ad8565b5b50505050565b600073ffffffffffffffffffffffffffffffffffffffff168373ffffffffffffffffffffffffffffffffffffffff1603610d9c576040517f08c379a0000000000000000000000000000000000000000000000000000000008152600401610d9390611c5d565b60405180910390fd5b600073ffffffffffffffffffffffffffffffffffffffff168273ffffffffffffffffffffffffffffffffffffffff1603610e0b576040517f08c379a0000000000000000000000000000000000000000000000000000000008152600401610e0290611cef565b60405180910390fd5b610e16838383611425565b60008060008573ffffffffffffffffffffffffffffffffffffffff1673ffffffffffffffffffffffffffffffffffffffff16815260200190815260200160002054905081811015610e9c576040517f08c379a0000000000000000000000000000000000000000000000000000000008152600401610e9390611d81565b60405180910390fd5b8181036000808673ffffffffffffffffffffffffffffffffffffffff1673ffffffffffffffffffffffffffffffffffffffff16815260200190815260200160002081905550816000808573ffffffffffffffffffffffffffffffffffffffff1673ffffffffffffffffffffffffffffffffffffffff1681526020019081526020016000206000828254610f2f91906117f7565b925050819055508273ffffffffffffffffffffffffffffffffffffffff168473ffffffffffffffffffffffffffffffffffffffff167fddf252ad1be2c89b69c2b068fc378daa952ba7f163c4a11628f55a4df523b3ef84604051610f9391906115ff565b60405180910390a3610fa684848461142a565b50505050565b600073ffffffffffffffffffffffffffffffffffffffff168273ffffffffffffffffffffffffffffffffffffffff160361101b576040517f08c379a000000000000000000000000000000000000000000000000000000000815260040161101290611ded565b60405180910390fd5b61102760008383611425565b806002600082825461103991906117f7565b92505081905550806000808473ffffffffffffffffffffffffffffffffffffffff1673ffffffffffffffffffffffffffffffffffffffff168152602001908152602001600020600082825461108e91906117f7565b925050819055508173ffffffffffffffffffffffffffffffffffffffff16600073ffffffffffffffffffffffffffffffffffffffff167fddf252ad1be2c89b69c2b068fc378daa952ba7f163c4a11628f55a4df523b3ef836040516110f391906115ff565b60405180910390a36111076000838361142a565b5050565b600073ffffffffffffffffffffffffffffffffffffffff168273ffffffffffffffffffffffffffffffffffffffff160361117a576040517f08c379a000000000000000000000000000000000000000000000000000000000815260040161117190611e7f565b60405180910390fd5b61118682600083611425565b60008060008473ffffffffffffffffffffffffffffffffffffffff1673ffffffffffffffffffffffffffffffffffffffff1681526020019081526020016000205490508181101561120c576040517f08c379a000000000000000000000000000000000000000000000000000000000815260040161120390611f11565b60405180910390fd5b8181036000808573ffffffffffffffffffffffffffffffffffffffff1673ffffffffffffffffffffffffffffffffffffffff1681526020019081526020016000208190555081600260008282546112639190611903565b92505081905550600073ffffffffffffffffffffffffffffffffffffffff168373ffffffffffffffffffffffffffffffffffffffff167fddf252ad1be2c89b69c2b068fc378daa952ba7f163c4a11628f55a4df523b3ef846040516112c891906115ff565b60405180910390a36112dc8360008461142a565b505050565b6112e9610ad0565b73ffffffffffffffffffffffffffffffffffffffff16611307610848565b73ffffffffffffffffffffffffffffffffffffffff161461135d576040517f08c379a000000000000000000000000000000000000000000000000000000000815260040161135490611f7d565b60405180910390fd5b565b6000600560009054906101000a900473ffffffffffffffffffffffffffffffffffffffff16905081600560006101000a81548173ffffffffffffffffffffffffffffffffffffffff021916908373ffffffffffffffffffffffffffffffffffffffff1602179055508173ffffffffffffffffffffffffffffffffffffffff168173ffffffffffffffffffffffffffffffffffffffff167f8be0079c531659141344cd1fd0a4f28419497f9722a3daafe3b4186f6b6457e060405160405180910390a35050565b505050565b505050565b600081519050919050565b600082825260208201905092915050565b60005b8381101561146957808201518184015260208101905061144e565b60008484015250505050565b6000601f19601f8301169050919050565b60006114918261142f565b61149b818561143a565b93506114ab81856020860161144b565b6114b481611475565b840191505092915050565b600060208201905081810360008301526114d98184611486565b905092915050565b600080fd5b600073ffffffffffffffffffffffffffffffffffffffff82169050919050565b6000611511826114e6565b9050919050565b61152181611506565b811461152c57600080fd5b50565b60008135905061153e81611518565b92915050565b6000819050919050565b61155781611544565b811461156257600080fd5b50565b6000813590506115748161154e565b92915050565b60008060408385031215611591576115906114e1565b5b600061159f8582860161152f565b92505060206115b085828601611565565b9150509250929050565b60008115159050919050565b6115cf816115ba565b82525050565b60006020820190506115ea60008301846115c6565b92915050565b6115f981611544565b82525050565b600060208201905061161460008301846115f0565b92915050565b600080600060608486031215611633576116326114e1565b5b60006116418682870161152f565b93505060206116528682870161152f565b925050604061166386828701611565565b9150509250925092565b600060ff82169050919050565b6116838161166d565b82525050565b600060208201905061169e600083018461167a565b92915050565b6000602082840312156116ba576116b96114e1565b5b60006116c884828501611565565b91505092915050565b6000602082840312156116e7576116e66114e1565b5b60006116f58482850161152f565b91505092915050565b61170781611506565b82525050565b600060208201905061172260008301846116fe565b92915050565b6000806040838503121561173f5761173e6114e1565b5b600061174d8582860161152f565b925050602061175e8582860161152f565b9150509250929050565b7f4e487b7100000000000000000000000000000000000000000000000000000000600052602260045260246000fd5b600060028204905060018216806117af57607f821691505b6020821081036117c2576117c1611768565b5b50919050565b7f4e487b7100000000000000000000000000000000000000000000000000000000600052601160045260246000fd5b600061180282611544565b915061180d83611544565b9250828201905080821115611825576118246117c8565b5b92915050565b7f706c6561736520706179206d696e74696e672066656500000000000000000000600082015250565b600061186160168361143a565b915061186c8261182b565b602082019050919050565b6000602082019050818103600083015261189081611854565b9050919050565b7f4e6f7420656e6f756768206c65667420746f206d696e74000000000000000000600082015250565b60006118cd60178361143a565b91506118d882611897565b602082019050919050565b600060208201905081810360008301526118fc816118c0565b9050919050565b600061190e82611544565b915061191983611544565b9250828203905081811115611931576119306117c8565b5b92915050565b7f45524332303a2064656372656173656420616c6c6f77616e63652062656c6f7760008201527f207a65726f000000000000000000000000000000000000000000000000000000602082015250565b600061199360258361143a565b915061199e82611937565b604082019050919050565b600060208201905081810360008301526119c281611986565b9050919050565b7f4f776e61626c653a206e6577206f776e657220697320746865207a65726f206160008201527f6464726573730000000000000000000000000000000000000000000000000000602082015250565b6000611a2560268361143a565b9150611a30826119c9565b604082019050919050565b60006020820190508181036000830152611a5481611a18565b9050919050565b7f45524332303a20617070726f76652066726f6d20746865207a65726f2061646460008201527f7265737300000000000000000000000000000000000000000000000000000000602082015250565b6000611ab760248361143a565b9150611ac282611a5b565b604082019050919050565b60006020820190508181036000830152611ae681611aaa565b9050919050565b7f45524332303a20617070726f766520746f20746865207a65726f20616464726560008201527f7373000000000000000000000000000000000000000000000000000000000000602082015250565b6000611b4960228361143a565b9150611b5482611aed565b604082019050919050565b60006020820190508181036000830152611b7881611b3c565b9050919050565b7f45524332303a20696e73756666696369656e7420616c6c6f77616e6365000000600082015250565b6000611bb5601d8361143a565b9150611bc082611b7f565b602082019050919050565b60006020820190508181036000830152611be481611ba8565b9050919050565b7f45524332303a207472616e736665722066726f6d20746865207a65726f20616460008201527f6472657373000000000000000000000000000000000000000000000000000000602082015250565b6000611c4760258361143a565b9150611c5282611beb565b604082019050919050565b60006020820190508181036000830152611c7681611c3a565b9050919050565b7f45524332303a207472616e7366657220746f20746865207a65726f206164647260008201527f6573730000000000000000000000000000000000000000000000000000000000602082015250565b6000611cd960238361143a565b9150611ce482611c7d565b604082019050919050565b60006020820190508181036000830152611d0881611ccc565b9050919050565b7f45524332303a207472616e7366657220616d6f756e742065786365656473206260008201527f616c616e63650000000000000000000000000000000000000000000000000000602082015250565b6000611d6b60268361143a565b9150611d7682611d0f565b604082019050919050565b60006020820190508181036000830152611d9a81611d5e565b9050919050565b7f45524332303a206d696e7420746f20746865207a65726f206164647265737300600082015250565b6000611dd7601f8361143a565b9150611de282611da1565b602082019050919050565b60006020820190508181036000830152611e0681611dca565b9050919050565b7f45524332303a206275726e2066726f6d20746865207a65726f2061646472657360008201527f7300000000000000000000000000000000000000000000000000000000000000602082015250565b6000611e6960218361143a565b9150611e7482611e0d565b604082019050919050565b60006020820190508181036000830152611e9881611e5c565b9050919050565b7f45524332303a206275726e20616d6f756e7420657863656564732062616c616e60008201527f6365000000000000000000000000000000000000000000000000000000000000602082015250565b6000611efb60228361143a565b9150611f0682611e9f565b604082019050919050565b60006020820190508181036000830152611f2a81611eee565b9050919050565b7f4f776e61626c653a2063616c6c6572206973206e6f7420746865206f776e6572600082015250565b6000611f6760208361143a565b9150611f7282611f31565b602082019050919050565b60006020820190508181036000830152611f9681611f5a565b905091905056fea264697066735822122050942e08aec76be9792f6a5cdc9b403a1deffc4c4808f849b15e9069fd48493164736f6c63430008110033",
  "linkReferences": {},
  "deployedLinkReferences": {}
}